{
  "_format": "hh-sol-artifact-1",
  "contractName": "TaskMarketplace",
  "sourceName": "contracts/TaskMarketplace.sol",
  "abi": [
    {
      "anonymous": false,
      "inputs": [
        {
          "indexed": false,
          "internalType": "uint256",
          "name": "taskId",
          "type": "uint256"
        },
        {
          "indexed": false,
          "internalType": "string",
          "name": "proofLink",
          "type": "string"
        }
      ],
      "name": "ProofSubmitted",
      "type": "event"
    },
    {
      "anonymous": false,
      "inputs": [
        {
          "indexed": false,
          "internalType": "uint256",
          "name": "taskId",
          "type": "uint256"
        },
        {
          "indexed": false,
          "internalType": "address",
          "name": "freelancer",
          "type": "address"
        }
      ],
      "name": "TaskAccepted",
      "type": "event"
    },
    {
      "anonymous": false,
      "inputs": [
        {
          "indexed": false,
          "internalType": "uint256",
          "name": "taskId",
          "type": "uint256"
        }
      ],
      "name": "TaskApproved",
      "type": "event"
    },
    {
      "anonymous": false,
      "inputs": [
        {
          "indexed": false,
          "internalType": "uint256",
          "name": "taskId",
          "type": "uint256"
        }
      ],
      "name": "TaskCancelled",
      "type": "event"
    },
    {
      "anonymous": false,
      "inputs": [
        {
          "indexed": false,
          "internalType": "uint256",
          "name": "taskId",
          "type": "uint256"
        },
        {
          "indexed": false,
          "internalType": "address",
          "name": "client",
          "type": "address"
        },
        {
          "indexed": false,
          "internalType": "uint256",
          "name": "reward",
          "type": "uint256"
        }
      ],
      "name": "TaskCreated",
      "type": "event"
    },
    {
      "anonymous": false,
      "inputs": [
        {
          "indexed": false,
          "internalType": "uint256",
          "name": "taskId",
          "type": "uint256"
        }
      ],
      "name": "TaskRefunded",
      "type": "event"
    },
    {
      "inputs": [
        {
          "internalType": "uint256",
          "name": "_taskId",
          "type": "uint256"
        }
      ],
      "name": "acceptTask",
      "outputs": [],
      "stateMutability": "nonpayable",
      "type": "function"
    },
    {
      "inputs": [
        {
          "internalType": "uint256",
          "name": "_taskId",
          "type": "uint256"
        }
      ],
      "name": "approveTask",
      "outputs": [],
      "stateMutability": "nonpayable",
      "type": "function"
    },
    {
      "inputs": [
        {
          "internalType": "uint256",
          "name": "_taskId",
          "type": "uint256"
        }
      ],
      "name": "cancelTask",
      "outputs": [],
      "stateMutability": "nonpayable",
      "type": "function"
    },
    {
      "inputs": [
        {
          "internalType": "string",
          "name": "_title",
          "type": "string"
        },
        {
          "internalType": "string",
          "name": "_description",
          "type": "string"
        },
        {
          "internalType": "uint256",
          "name": "_deadline",
          "type": "uint256"
        }
      ],
      "name": "createTask",
      "outputs": [],
      "stateMutability": "payable",
      "type": "function"
    },
    {
      "inputs": [
        {
          "internalType": "uint256",
          "name": "_taskId",
          "type": "uint256"
        }
      ],
      "name": "refundTask",
      "outputs": [],
      "stateMutability": "nonpayable",
      "type": "function"
    },
    {
      "inputs": [
        {
          "internalType": "uint256",
          "name": "_taskId",
          "type": "uint256"
        },
        {
          "internalType": "string",
          "name": "_proofLink",
          "type": "string"
        }
      ],
      "name": "submitProof",
      "outputs": [],
      "stateMutability": "nonpayable",
      "type": "function"
    },
    {
      "inputs": [],
      "name": "taskCount",
      "outputs": [
        {
          "internalType": "uint256",
          "name": "",
          "type": "uint256"
        }
      ],
      "stateMutability": "view",
      "type": "function"
    },
    {
      "inputs": [
        {
          "internalType": "uint256",
          "name": "",
          "type": "uint256"
        }
      ],
      "name": "tasks",
      "outputs": [
        {
          "internalType": "uint256",
          "name": "taskId",
          "type": "uint256"
        },
        {
          "internalType": "string",
          "name": "title",
          "type": "string"
        },
        {
          "internalType": "string",
          "name": "description",
          "type": "string"
        },
        {
          "internalType": "uint256",
          "name": "reward",
          "type": "uint256"
        },
        {
          "internalType": "address payable",
          "name": "client",
          "type": "address"
        },
        {
          "internalType": "address payable",
          "name": "freelancer",
          "type": "address"
        },
        {
          "internalType": "enum TaskMarketplace.TaskStatus",
          "name": "status",
          "type": "uint8"
        },
        {
          "internalType": "string",
          "name": "proofLink",
          "type": "string"
        },
        {
          "internalType": "uint256",
          "name": "deadline",
          "type": "uint256"
        }
      ],
      "stateMutability": "view",
      "type": "function"
    }
  ],
  "bytecode": "0x608060405234801561001057600080fd5b50611fe6806100206000396000f3fe60806040526004361061007b5760003560e01c806341a4e30a1161004e57806341a4e30a146101245780637eec20a8146101405780638d97767214610169578063b6cb58a5146101ae5761007b565b80630a07fae6146100805780631bf6912d146100a957806328677436146100d25780632af00510146100fb575b600080fd5b34801561008c57600080fd5b506100a760048036038101906100a291906111b7565b6101d9565b005b3480156100b557600080fd5b506100d060048036038101906100cb91906111b7565b6103e5565b005b3480156100de57600080fd5b506100f960048036038101906100f491906111b7565b6105b4565b005b34801561010757600080fd5b50610122600480360381019061011d9190611249565b61084c565b005b61013e600480360381019061013991906112a9565b610a03565b005b34801561014c57600080fd5b50610167600480360381019061016291906111b7565b610d32565b005b34801561017557600080fd5b50610190600480360381019061018b91906111b7565b610f3e565b6040516101a599989796959493929190611495565b60405180910390f35b3480156101ba57600080fd5b506101c3611171565b6040516101d09190611537565b60405180910390f35b806001600082815260200190815260200160002060040160009054906101000a900473ffffffffffffffffffffffffffffffffffffffff1673ffffffffffffffffffffffffffffffffffffffff163373ffffffffffffffffffffffffffffffffffffffff161461027e576040517f08c379a00000000000000000000000000000000000000000000000000000000081526004016102759061159e565b60405180910390fd5b6000600160008481526020019081526020016000209050600260058111156102a9576102a861141e565b5b8160050160149054906101000a900460ff1660058111156102cd576102cc61141e565b5b1461030d576040517f08c379a00000000000000000000000000000000000000000000000000000000081526004016103049061160a565b60405180910390fd5b60038160050160146101000a81548160ff021916908360058111156103355761033461141e565b5b02179055508060050160009054906101000a900473ffffffffffffffffffffffffffffffffffffffff1673ffffffffffffffffffffffffffffffffffffffff166108fc82600301549081150290604051600060405180830381858888f193505050501580156103a8573d6000803e3d6000fd5b507f3e9d27a1c2a828db29e4b2a17fbd1bc70201ef21aec4f74b9fa051b02e38e3f0836040516103d89190611537565b60405180910390a1505050565b6000600160008381526020019081526020016000209050600060058111156104105761040f61141e565b5b8160050160149054906101000a900460ff1660058111156104345761043361141e565b5b14610474576040517f08c379a000000000000000000000000000000000000000000000000000000000815260040161046b90611676565b60405180910390fd5b600073ffffffffffffffffffffffffffffffffffffffff168160050160009054906101000a900473ffffffffffffffffffffffffffffffffffffffff1673ffffffffffffffffffffffffffffffffffffffff1614610507576040517f08c379a00000000000000000000000000000000000000000000000000000000081526004016104fe906116e2565b60405180910390fd5b338160050160006101000a81548173ffffffffffffffffffffffffffffffffffffffff021916908373ffffffffffffffffffffffffffffffffffffffff16021790555060018160050160146101000a81548160ff021916908360058111156105725761057161141e565b5b02179055507fc8717b61398fb9d7cacf49fe1e296b2f10e9711226b532842b6ffd642cb6a2c682336040516105a8929190611723565b60405180910390a15050565b6000600160008381526020019081526020016000209050600260058111156105df576105de61141e565b5b8160050160149054906101000a900460ff1660058111156106035761060261141e565b5b14610643576040517f08c379a000000000000000000000000000000000000000000000000000000000815260040161063a90611798565b60405180910390fd5b80600701544211610689576040517f08c379a000000000000000000000000000000000000000000000000000000000815260040161068090611804565b60405180910390fd5b8060050160009054906101000a900473ffffffffffffffffffffffffffffffffffffffff1673ffffffffffffffffffffffffffffffffffffffff163373ffffffffffffffffffffffffffffffffffffffff16148061073657508060040160009054906101000a900473ffffffffffffffffffffffffffffffffffffffff1673ffffffffffffffffffffffffffffffffffffffff163373ffffffffffffffffffffffffffffffffffffffff16145b610775576040517f08c379a000000000000000000000000000000000000000000000000000000000815260040161076c90611870565b60405180910390fd5b60048160050160146101000a81548160ff0219169083600581111561079d5761079c61141e565b5b02179055508060040160009054906101000a900473ffffffffffffffffffffffffffffffffffffffff1673ffffffffffffffffffffffffffffffffffffffff166108fc82600301549081150290604051600060405180830381858888f19350505050158015610810573d6000803e3d6000fd5b507fd64a3a9649695b08ea7b2b94945f064a42f94cc9a8003eacee8b26940b4c4017826040516108409190611537565b60405180910390a15050565b826001600082815260200190815260200160002060050160009054906101000a900473ffffffffffffffffffffffffffffffffffffffff1673ffffffffffffffffffffffffffffffffffffffff163373ffffffffffffffffffffffffffffffffffffffff16146108f1576040517f08c379a00000000000000000000000000000000000000000000000000000000081526004016108e8906118dc565b60405180910390fd5b60006001600086815260200190815260200160002090506001600581111561091c5761091b61141e565b5b8160050160149054906101000a900460ff1660058111156109405761093f61141e565b5b14610980576040517f08c379a000000000000000000000000000000000000000000000000000000000815260040161097790611948565b60405180910390fd5b8383826006019182610993929190611bae565b5060028160050160146101000a81548160ff021916908360058111156109bc576109bb61141e565b5b02179055507fc577bdeb8da1059fec56a8d1554e25846f18ebf046c214b145cac25f76bda3508585856040516109f493929190611cba565b60405180910390a15050505050565b60003411610a46576040517f08c379a0000000000000000000000000000000000000000000000000000000008152600401610a3d90611d38565b60405180910390fd5b428111610a88576040517f08c379a0000000000000000000000000000000000000000000000000000000008152600401610a7f90611da4565b60405180910390fd5b600080815480929190610a9a90611df3565b9190505550604051806101200160405280600054815260200186868080601f016020809104026020016040519081016040528093929190818152602001838380828437600081840152601f19601f82011690508083019250505050505050815260200184848080601f016020809104026020016040519081016040528093929190818152602001838380828437600081840152601f19601f8201169050808301925050505050505081526020013481526020013373ffffffffffffffffffffffffffffffffffffffff168152602001600073ffffffffffffffffffffffffffffffffffffffff16815260200160006005811115610b9a57610b9961141e565b5b8152602001604051806020016040528060008152508152602001828152506001600080548152602001908152602001600020600082015181600001556020820151816001019081610beb9190611e3b565b506040820151816002019081610c019190611e3b565b506060820151816003015560808201518160040160006101000a81548173ffffffffffffffffffffffffffffffffffffffff021916908373ffffffffffffffffffffffffffffffffffffffff16021790555060a08201518160050160006101000a81548173ffffffffffffffffffffffffffffffffffffffff021916908373ffffffffffffffffffffffffffffffffffffffff16021790555060c08201518160050160146101000a81548160ff02191690836005811115610cc557610cc461141e565b5b021790555060e0820151816006019081610cdf9190611e3b565b5061010082015181600701559050507f6cf53aa7292e664152c2ea948c3b3c95d4b05c36daeb2626d0293473c4a4a1536000543334604051610d2393929190611f0d565b60405180910390a15050505050565b806001600082815260200190815260200160002060040160009054906101000a900473ffffffffffffffffffffffffffffffffffffffff1673ffffffffffffffffffffffffffffffffffffffff163373ffffffffffffffffffffffffffffffffffffffff1614610dd7576040517f08c379a0000000000000000000000000000000000000000000000000000000008152600401610dce9061159e565b60405180910390fd5b600060016000848152602001908152602001600020905060006005811115610e0257610e0161141e565b5b8160050160149054906101000a900460ff166005811115610e2657610e2561141e565b5b14610e66576040517f08c379a0000000000000000000000000000000000000000000000000000000008152600401610e5d90611f90565b60405180910390fd5b60058160050160146101000a81548160ff02191690836005811115610e8e57610e8d61141e565b5b02179055508060040160009054906101000a900473ffffffffffffffffffffffffffffffffffffffff1673ffffffffffffffffffffffffffffffffffffffff166108fc82600301549081150290604051600060405180830381858888f19350505050158015610f01573d6000803e3d6000fd5b507fc6eacc3aa5b2aa77b5a826b832a804ca0b71830ec74f9aa57a15edd978c31ed683604051610f319190611537565b60405180910390a1505050565b6001602052806000526040600020600091509050806000015490806001018054610f67906119d1565b80601f0160208091040260200160405190810160405280929190818152602001828054610f93906119d1565b8015610fe05780601f10610fb557610100808354040283529160200191610fe0565b820191906000526020600020905b815481529060010190602001808311610fc357829003601f168201915b505050505090806002018054610ff5906119d1565b80601f0160208091040260200160405190810160405280929190818152602001828054611021906119d1565b801561106e5780601f106110435761010080835404028352916020019161106e565b820191906000526020600020905b81548152906001019060200180831161105157829003601f168201915b5050505050908060030154908060040160009054906101000a900473ffffffffffffffffffffffffffffffffffffffff16908060050160009054906101000a900473ffffffffffffffffffffffffffffffffffffffff16908060050160149054906101000a900460ff16908060060180546110e8906119d1565b80601f0160208091040260200160405190810160405280929190818152602001828054611114906119d1565b80156111615780601f1061113657610100808354040283529160200191611161565b820191906000526020600020905b81548152906001019060200180831161114457829003601f168201915b5050505050908060070154905089565b60005481565b600080fd5b600080fd5b6000819050919050565b61119481611181565b811461119f57600080fd5b50565b6000813590506111b18161118b565b92915050565b6000602082840312156111cd576111cc611177565b5b60006111db848285016111a2565b91505092915050565b600080fd5b600080fd5b600080fd5b60008083601f840112611209576112086111e4565b5b8235905067ffffffffffffffff811115611226576112256111e9565b5b602083019150836001820283011115611242576112416111ee565b5b9250929050565b60008060006040848603121561126257611261611177565b5b6000611270868287016111a2565b935050602084013567ffffffffffffffff8111156112915761129061117c565b5b61129d868287016111f3565b92509250509250925092565b6000806000806000606086880312156112c5576112c4611177565b5b600086013567ffffffffffffffff8111156112e3576112e261117c565b5b6112ef888289016111f3565b9550955050602086013567ffffffffffffffff8111156113125761131161117c565b5b61131e888289016111f3565b93509350506040611331888289016111a2565b9150509295509295909350565b61134781611181565b82525050565b600081519050919050565b600082825260208201905092915050565b60005b8381101561138757808201518184015260208101905061136c565b60008484015250505050565b6000601f19601f8301169050919050565b60006113af8261134d565b6113b98185611358565b93506113c9818560208601611369565b6113d281611393565b840191505092915050565b600073ffffffffffffffffffffffffffffffffffffffff82169050919050565b6000611408826113dd565b9050919050565b611418816113fd565b82525050565b7f4e487b7100000000000000000000000000000000000000000000000000000000600052602160045260246000fd5b6006811061145e5761145d61141e565b5b50565b600081905061146f8261144d565b919050565b600061147f82611461565b9050919050565b61148f81611474565b82525050565b6000610120820190506114ab600083018c61133e565b81810360208301526114bd818b6113a4565b905081810360408301526114d1818a6113a4565b90506114e0606083018961133e565b6114ed608083018861140f565b6114fa60a083018761140f565b61150760c0830186611486565b81810360e083015261151981856113a4565b905061152961010083018461133e565b9a9950505050505050505050565b600060208201905061154c600083018461133e565b92915050565b7f4f6e6c7920636c69656e7420616c6c6f77656400000000000000000000000000600082015250565b6000611588601383611358565b915061159382611552565b602082019050919050565b600060208201905081810360008301526115b78161157b565b9050919050565b7f5461736b206e6f74207375626d69747465642079657400000000000000000000600082015250565b60006115f4601683611358565b91506115ff826115be565b602082019050919050565b60006020820190508181036000830152611623816115e7565b9050919050565b7f5461736b206e6f74206f70656e00000000000000000000000000000000000000600082015250565b6000611660600d83611358565b915061166b8261162a565b602082019050919050565b6000602082019050818103600083015261168f81611653565b9050919050565b7f416c726561647920616363657074656400000000000000000000000000000000600082015250565b60006116cc601083611358565b91506116d782611696565b602082019050919050565b600060208201905081810360008301526116fb816116bf565b9050919050565b600061170d826113dd565b9050919050565b61171d81611702565b82525050565b6000604082019050611738600083018561133e565b6117456020830184611714565b9392505050565b7f5461736b206e6f74207375626d69747465640000000000000000000000000000600082015250565b6000611782601283611358565b915061178d8261174c565b602082019050919050565b600060208201905081810360008301526117b181611775565b9050919050565b7f446561646c696e65206e6f742072656163686564000000000000000000000000600082015250565b60006117ee601483611358565b91506117f9826117b8565b602082019050919050565b6000602082019050818103600083015261181d816117e1565b9050919050565b7f556e617574686f72697a65640000000000000000000000000000000000000000600082015250565b600061185a600c83611358565b915061186582611824565b602082019050919050565b600060208201905081810360008301526118898161184d565b9050919050565b7f4f6e6c7920667265656c616e63657220616c6c6f776564000000000000000000600082015250565b60006118c6601783611358565b91506118d182611890565b602082019050919050565b600060208201905081810360008301526118f5816118b9565b9050919050565b7f5461736b206e6f7420696e206163636570746564207374617465000000000000600082015250565b6000611932601a83611358565b915061193d826118fc565b602082019050919050565b6000602082019050818103600083015261196181611925565b9050919050565b600082905092915050565b7f4e487b7100000000000000000000000000000000000000000000000000000000600052604160045260246000fd5b7f4e487b7100000000000000000000000000000000000000000000000000000000600052602260045260246000fd5b600060028204905060018216806119e957607f821691505b6020821081036119fc576119fb6119a2565b5b50919050565b60008190508160005260206000209050919050565b60006020601f8301049050919050565b600082821b905092915050565b600060088302611a647fffffffffffffffffffffffffffffffffffffffffffffffffffffffffffffffff82611a27565b611a6e8683611a27565b95508019841693508086168417925050509392505050565b6000819050919050565b6000611aab611aa6611aa184611181565b611a86565b611181565b9050919050565b6000819050919050565b611ac583611a90565b611ad9611ad182611ab2565b848454611a34565b825550505050565b600090565b611aee611ae1565b611af9818484611abc565b505050565b5b81811015611b1d57611b12600082611ae6565b600181019050611aff565b5050565b601f821115611b6257611b3381611a02565b611b3c84611a17565b81016020851015611b4b578190505b611b5f611b5785611a17565b830182611afe565b50505b505050565b600082821c905092915050565b6000611b8560001984600802611b67565b1980831691505092915050565b6000611b9e8383611b74565b9150826002028217905092915050565b611bb88383611968565b67ffffffffffffffff811115611bd157611bd0611973565b5b611bdb82546119d1565b611be6828285611b21565b6000601f831160018114611c155760008415611c03578287013590505b611c0d8582611b92565b865550611c75565b601f198416611c2386611a02565b60005b82811015611c4b57848901358255600182019150602085019450602081019050611c26565b86831015611c685784890135611c64601f891682611b74565b8355505b6001600288020188555050505b50505050505050565b82818337600083830152505050565b6000611c998385611358565b9350611ca6838584611c7e565b611caf83611393565b840190509392505050565b6000604082019050611ccf600083018661133e565b8181036020830152611ce2818486611c8d565b9050949350505050565b7f526577617264206d7573742062652067726561746572207468616e2030000000600082015250565b6000611d22601d83611358565b9150611d2d82611cec565b602082019050919050565b60006020820190508181036000830152611d5181611d15565b9050919050565b7f446561646c696e65206d75737420626520696e20667574757265000000000000600082015250565b6000611d8e601a83611358565b9150611d9982611d58565b602082019050919050565b60006020820190508181036000830152611dbd81611d81565b9050919050565b7f4e487b7100000000000000000000000000000000000000000000000000000000600052601160045260246000fd5b6000611dfe82611181565b91507fffffffffffffffffffffffffffffffffffffffffffffffffffffffffffffffff8203611e3057611e2f611dc4565b5b600182019050919050565b611e448261134d565b67ffffffffffffffff811115611e5d57611e5c611973565b5b611e6782546119d1565b611e72828285611b21565b600060209050601f831160018114611ea55760008415611e93578287015190505b611e9d8582611b92565b865550611f05565b601f198416611eb386611a02565b60005b82811015611edb57848901518255600182019150602085019450602081019050611eb6565b86831015611ef85784890151611ef4601f891682611b74565b8355505b6001600288020188555050505b505050505050565b6000606082019050611f22600083018661133e565b611f2f6020830185611714565b611f3c604083018461133e565b949350505050565b7f43616e6e6f742063616e63656c20616674657220616363657074656400000000600082015250565b6000611f7a601c83611358565b9150611f8582611f44565b602082019050919050565b60006020820190508181036000830152611fa981611f6d565b905091905056fea2646970667358221220388b2e8320186a7d3b8bfa92d394087df4867473b7a6b2c8fd01ca431c437a8064736f6c63430008140033",
  "linkReferences": {},
  "deployedLinkReferences": {}
}